{
  "contractName": "PlayerScore",
  "abi": [
    {
      "constant": true,
      "inputs": [
        {
          "name": "",
          "type": "uint256"
        }
      ],
      "name": "topScores",
      "outputs": [
        {
          "name": "addr",
          "type": "address"
        },
        {
          "name": "score",
          "type": "int256"
        }
      ],
      "payable": false,
      "stateMutability": "view",
      "type": "function",
      "signature": "0x5112711a"
    },
    {
      "constant": true,
      "inputs": [
        {
          "name": "",
          "type": "address"
        }
      ],
      "name": "userTopScores",
      "outputs": [
        {
          "name": "",
          "type": "int256"
        }
      ],
      "payable": false,
      "stateMutability": "view",
      "type": "function",
      "signature": "0xffb8df83"
    },
    {
      "inputs": [],
      "payable": false,
      "stateMutability": "nonpayable",
      "type": "constructor",
      "signature": "constructor"
    },
    {
      "constant": false,
      "inputs": [
        {
          "name": "score",
          "type": "int256"
        },
        {
          "name": "v",
          "type": "uint8"
        },
        {
          "name": "r",
          "type": "bytes32"
        },
        {
          "name": "s",
          "type": "bytes32"
        }
      ],
      "name": "setTopScore",
      "outputs": [],
      "payable": false,
      "stateMutability": "nonpayable",
      "type": "function",
      "signature": "0x30fa7fa8"
    },
    {
      "constant": false,
      "inputs": [],
      "name": "getCountTopScores",
      "outputs": [
        {
          "name": "",
          "type": "uint256"
        }
      ],
      "payable": false,
      "stateMutability": "nonpayable",
      "type": "function",
      "signature": "0x5eb164c4"
    }
  ],
  "bytecode": "0x6080604052602860005534801561001557600080fd5b5033600160006101000a81548173ffffffffffffffffffffffffffffffffffffffff021916908373ffffffffffffffffffffffffffffffffffffffff1602179055506106c1806100666000396000f300608060405260043610610062576000357c0100000000000000000000000000000000000000000000000000000000900463ffffffff16806330fa7fa8146100675780635112711a146100bd5780635eb164c414610131578063ffb8df831461015c575b600080fd5b34801561007357600080fd5b506100bb60048036038101908080359060200190929190803560ff169060200190929190803560001916906020019092919080356000191690602001909291905050506101b3565b005b3480156100c957600080fd5b506100e8600480360381019080803590602001909291905050506105ed565b604051808373ffffffffffffffffffffffffffffffffffffffff1673ffffffffffffffffffffffffffffffffffffffff1681526020018281526020019250505060405180910390f35b34801561013d57600080fd5b50610146610640565b6040518082815260200191505060405180910390f35b34801561016857600080fd5b5061019d600480360381019080803573ffffffffffffffffffffffffffffffffffffffff16906020019092919050505061064d565b6040518082815260200191505060405180910390f35b60008060006101c0610665565b6000806000806101ce610665565b33600160009054906101000a900473ffffffffffffffffffffffffffffffffffffffff168e604051808473ffffffffffffffffffffffffffffffffffffffff1673ffffffffffffffffffffffffffffffffffffffff166c010000000000000000000000000281526014018373ffffffffffffffffffffffffffffffffffffffff1673ffffffffffffffffffffffffffffffffffffffff166c010000000000000000000000000281526014018281526020019350505050604051809103902098506001898d8d8d604051600081526020016040526040518085600019166000191681526020018460ff1660ff1681526020018360001916600019168152602001826000191660001916815260200194505050505060206040516020810390808403906000865af1158015610305573d6000803e3d6000fd5b505050602060405103519750600160009054906101000a900473ffffffffffffffffffffffffffffffffffffffff1673ffffffffffffffffffffffffffffffffffffffff168873ffffffffffffffffffffffffffffffffffffffff1614151561036d57600080fd5b600360003373ffffffffffffffffffffffffffffffffffffffff1673ffffffffffffffffffffffffffffffffffffffff1681526020019081526020016000205496508c8712156103fc578c600360003373ffffffffffffffffffffffffffffffffffffffff1673ffffffffffffffffffffffffffffffffffffffff168152602001908152602001600020819055505b60005460028054905010156104bf5760408051908101604052803373ffffffffffffffffffffffffffffffffffffffff1681526020018e81525095506002869080600181540180825580915050906001820390600052602060002090600202016000909192909190915060008201518160000160006101000a81548173ffffffffffffffffffffffffffffffffffffffff021916908373ffffffffffffffffffffffffffffffffffffffff160217905550602082015181600101555050506105de565b6000945060009350600092505b600280549050831015610535576002838154811015156104e857fe5b9060005260206000209060020201915060008314156105105781600101549450829350610528565b816001015485131561052757816001015494508293505b5b82806001019350506104cc565b848d13156105dd5760408051908101604052803373ffffffffffffffffffffffffffffffffffffffff1681526020018e81525090508060028581548110151561057a57fe5b906000526020600020906002020160008201518160000160006101000a81548173ffffffffffffffffffffffffffffffffffffffff021916908373ffffffffffffffffffffffffffffffffffffffff160217905550602082015181600101559050505b5b50505050505050505050505050565b6002818154811015156105fc57fe5b90600052602060002090600202016000915090508060000160009054906101000a900473ffffffffffffffffffffffffffffffffffffffff16908060010154905082565b6000600280549050905090565b60036020528060005260406000206000915090505481565b6040805190810160405280600073ffffffffffffffffffffffffffffffffffffffff1681526020016000815250905600a165627a7a723058202d6cf7720baaef7cc24dfeed75120ba60ffc98b238c99a37e49735bc283dbe880029",
  "source": "pragma solidity ^0.4.10;\n\ncontract PlayerScore {\n    \n    uint maxTopScores = 40;\n    address owner;\n\n    struct TopScore{\n        address addr;\n        int score;\n    }\n    \n    function PlayerScore(){\n        owner = msg.sender;\n    }\n\n    TopScore[] public topScores;\n\n    mapping (address=>int) public userTopScores;\n    \n    function setTopScore(int256 score, uint8 v, bytes32 r, bytes32 s) {\n        var hash = sha3(msg.sender, owner, score);\n        var addressCheck = ecrecover(hash, v, r, s);\n        \n        if(addressCheck != owner) throw;\n        \n        var currentTopScore = userTopScores[msg.sender];\n        if(currentTopScore < score){\n            userTopScores[msg.sender] = score;\n        }\n\n        if(topScores.length < maxTopScores){\n            var topScore = TopScore(msg.sender, score);\n            topScores.push(topScore);\n        }else{\n            int lowestScore = 0;\n            uint lowestScoreIndex = 0; \n            for (uint i = 0; i < topScores.length; i++)\n            {\n                TopScore currentScore = topScores[i];\n                if(i == 0){\n                    lowestScore = currentScore.score;\n                    lowestScoreIndex = i;\n                }else{\n                    if(lowestScore > currentScore.score){\n                        lowestScore = currentScore.score;\n                        lowestScoreIndex = i;\n                    }\n                }\n            }\n            if(score > lowestScore){\n                var newtopScore = TopScore(msg.sender, score);\n                topScores[lowestScoreIndex] = newtopScore;\n            }\n        }\n    }\n\n    function getCountTopScores() returns(uint) {\n        return topScores.length;\n    }\n}",
  "sourcePath": "C:/tomochain/nethereum-highscore/contracts/PlayerScore.sol",
  "compiler": {
    "name": "solc",
    "version": "0.4.23+commit.124ca40d.Emscripten.clang"
  },
  "schemaVersion": "3.0.2",
  "updatedAt": "2019-04-04T12:05:44.379Z",
  "devdoc": {
    "methods": {}
  },
  "userdoc": {
    "methods": {}
  }
}